:020000040000FA
:0400000009EF00F014
:1000080003829EB69E960392110057EF00F0620E8F
:10001800D36ED39ED3508F0B6009D36ED396D394EF
:10002800D350FC0B0209D36ED29ED29CD298D296A2
:10003800D284D292D290000E9B6E120089508A50C0
:100048008B50000E8C6E94869488949A928A0F0135
:10005800389B000E3A6F000E936E000E396F120037
:10006800C78CC68AC650F00B0409C66E000EC86E4F
:10007800000EC56E120050EC00F0090E48EC00F0BE
:10008800026E02C08AFFF9D7016E01C0C9FF9EA6A1
:10009800FED79E96C95012000BEC00F022EC00F03F
:1000A80034EC00F012000390039200013FEF00F0DF
:020000040020DA
:08000000FFFFFFFFFFFFFFFF00
:020000040030CA
:0E000000FF281F3CFFBF85FF03C003E0034045
:00000001FF
