:020000040000FA
:040000002CEF00F0F1
:1000080008829EA60AD08BB402D08B8401D08B9430
:10001800C6BEC69EC9CF06F09E969EAC0BD08BB0CE
:1000280002D08B8001D08B90ACEC00F0C3CF01F0F4
:10003800026A9E9CF2A00AD08BB202D08B8201D0B9
:100048008B92000E81BA010E076EF2900892110091
:100058007DEF00F088EC00F0B3EC00F00628D8A49F
:1000680002D0090E14D00604D8A403D001C005F0AC
:1000780017D0020E0618D8A403D007C005F010D078
:10008800030E0618D8A405D0B1EC00F0000E056EDA
:1000980007D0040E0618D8A4F9D7AFEC00F0F6D7AD
:1000A80005C0C9FFD9D789508A508B50000E8C6E75
:1000B80094869488949A928A0F01389B000E3A6F1E
:1000C800938A399B92803881959A3B9B949094921D
:1000D80094948B908B928B941200D3508F0B600961
:1000E800D36ED350FC0B0209D36ED284000E9B6EE4
:1000F800120000EE01F0070EEE6AE806FDE1089036
:10010800089200012EEF00F071EC00F057EC00F0BF
:1001180093EC00F0A7EC00F09EEC00F012009E9625
:100128009D869E9C9D8CF290F286628AD09EF28C6F
:10013800F28E1200000EC76E240EC66E000EC86E38
:10014800000EC56E1200010EC26E870EC06E120040
:10015800C2A21200FDD78C8A12008C9A1200C282A9
:02016800120083
:020000040020DA
:08000000FFFFFFFFFFFFFFFF00
:020000040030CA
:0E000000FF281F3CFFBF85FF03C003E0034045
:00000001FF
