:020000040000FA
:040000001EEF00F0FF
:1000080009829EAC09D08B8092EC00F08FEC00F056
:10001800C4CF01F0026A9E9CF2A00AD08BB202D033
:100028008B8201D08B92000E81BA010E056EF29080
:100038000992110069EF00F07DEC00F0000E076EE8
:10004800075073EC00F0086E0828D8A405D0090EF4
:10005800076E030E8A6EF4D70804D8A402D00A0EDD
:10006800EED7030E0818D8A4E9D70B0EE8D78950A5
:100078008A508B50000E8C6E94869488949A928A3B
:100088000F01389B000E3A6F938A399B9280388112
:10009800959A3B9B949094921200D3508F0B6009D1
:1000A800D36ED350FC0B0209D36ED284000E9B6E24
:1000B8001200010E0F01386FC09EC70EC016070E42
:1000C800C012000EC16EC2801200056A046A036A7B
:1000D800026A016A09900992000120EF00F0066E99
:1000E80006C0C9FF9EA6FED79E96C6BEC69EC9502C
:1000F800120051EC00F03BEC00F05DEC00F086ECF7
:1001080000F01200000EC76E240EC66E000EC86EF8
:10011800000EC56E1200C2A21200FDD7C2821200E4
:020000040020DA
:08000000FFFFFFFFFFFFFFFF00
:020000040030CA
:0E000000FF281F3CFFBF85FF03C003E0034045
:00000001FF
